:100000000C9458000C9480000C9480000C94800098
:100010000C9480000C9480000C9480000C94800060
:100020000C9480000C9480000C9480000C94800050
:100030000C9480000C9480000C9480000C94800040
:100040000C94DB060C9480000C944B070C94250751
:100050000C9480000C9480000C9480000C94800020
:100060000C947D070C9480000000000025002800FF
:100070002B00040404040404040402020202020229
:10008000030303030303010204081020408001025C
:1000900004081020010204081020000000080002DB
:1000A00001000003040700000000000000009C089D
:1000B00011241FBECFEFD8E0DEBFCDBF11E0A0E01E
:1000C000B1E0E4EBFAE102C005900D92A836B10769
:1000D000D9F722E0A8E6B1E001C01D92AC3EB2071C
:1000E000E1F710E0C8E5D0E004C02197FE010E94CE
:1000F0002D0CC735D107C9F70E94E2080C94580DA2
:100100000C9400000895089590E0FC01E656FF4F1E
:100110002491FC01EA57FF4F3491FC01EE58FF4F48
:10012000E491EE23C9F0222339F0233001F1A8F441
:10013000213019F1223029F1F0E0EE0FFF1FE859CC
:10014000FF4FA591B4918FB7F894EC91611126C03F
:1001500030953E233C938FBF08952730A9F0283077
:10016000C9F0243049F7809180008F7D03C08091D1
:1001700080008F7780938000DFCF84B58F7784BD38
:10018000DBCF84B58F7DFBCF8091B0008F778093DC
:10019000B000D2CF8091B0008F7DF9CF3E2BDACF67
:1001A0003FB7F8948091B1019091B201A091B30151
:1001B000B091B40126B5A89B05C02F3F19F0019658
:1001C000A11DB11D3FBFBA2FA92F982F8827BC01B1
:1001D000CD01620F711D811D911D42E0660F771FD9
:1001E000881F991F4A95D1F708958F929F92AF92D9
:1001F000BF92CF92DF92EF92FF924B015C010E947F
:10020000D0006B017C010E94D0006C197D098E0921
:100210009F09683E734081059105A8F321E0821A89
:100220009108A108B10888EEC80E83E0D81EE11C31
:10023000F11C81149104A104B10429F7FF90EF90FF
:10024000DF90CF90BF90AF909F908F900895AF9226
:10025000BF92CF92DF92EF92FF920F931F93CF93B3
:10026000DF936C017B018B01040F151FEB015E0115
:10027000AE18BF08C017D10759F06991D601ED91AA
:10028000FC910190F081E02DC6010995892B79F749
:10029000C501DF91CF911F910F91FF90EF90DF90FB
:1002A000CF90BF90AF900895FC01538D448D252FC2
:1002B00030E0842F90E0821B930B541710F0CF9600
:1002C000089501970895FC01918D828D981761F032
:1002D000A28DAE0FBF2FB11D5D968C91928D9F5F49
:1002E0009F73928F90E008958FEF9FEF0895FC0128
:1002F000918D828D981731F0828DE80FF11D858DDB
:1003000090E008958FEF9FEF0895FC01918D228D6D
:10031000892F90E0805C9F4F821B91098F739927F2
:1003200008958BE292E00E94850121E0892B09F477
:1003300020E0822F089580E090E0892B29F00E9430
:10034000910181110C9400000895FC01A48DA80F67
:10035000B92FB11DA35ABF4F2C91848D90E0019607
:100360008F739927848FA689B7892C93A089B18927
:100370008C91837080648C93938D848D981306C0C8
:100380000288F389E02D80818F7D80830895EF922C
:10039000FF920F931F93CF93DF93EC0181E0888F3F
:1003A0009B8D8C8D98131AC0E889F989808185FF0F
:1003B00015C09FB7F894EE89FF896083E889F989B1
:1003C00080818370806480839FBF81E090E0DF91B3
:1003D000CF911F910F91FF90EF900895F62E0B8D06
:1003E00010E00F5F1F4F0F731127E02E8C8D8E11C1
:1003F0000CC00FB607FCFACFE889F989808185FF28
:10040000F5CFCE010E94A501F1CFEB8DEC0FFD2FB2
:10041000F11DE35AFF4FF0829FB7F8940B8FEA89E2
:10042000FB8980818062CFCFCF93DF93EC01888DF1
:100430008823B9F0AA89BB89E889F9898C9185FD5F
:1004400003C0808186FD0DC00FB607FCF7CF8C91ED
:1004500085FFF2CF808185FFEDCFCE010E94A501FF
:10046000E9CFDF91CF91089520918901260F33279D
:10047000331F21323105ECF420910102FC0190E0A0
:1004800080E0243069F082E00895A09189012191F3
:10049000AC0147595E4FA40FB52FB11D2C930196A7
:1004A000861798F380918901680F6093890180E035
:1004B000089581E008951092010281E08093000286
:1004C0001092DB0161E082E10E94840061E083E13F
:1004D0000E948400E9EBF0E080818E7F8083808140
:1004E0008D7F808388E48093B80085E48093BC008E
:1004F0000895CF93DF9391E0909368018823B9F03A
:10050000C091B800D091BA008091BC008A7B8093E2
:10051000BC0060E082E10E94840060E083E10E9410
:1005200084000E945B02D093BA00C093B800DF91B0
:10053000CF9108958F929F92AF92BF92CF92DF9208
:10054000EF92FF920F931F93CF93DF93D0912A02E4
:10055000D13208F0D7C0182FC09129020E94D000D4
:100560006B017C018091010281116BC082E080935C
:100570000102109300028FEF8093FF011092FE01A1
:10058000D093FD01A9E0B2E0EDEDF1E080E0D813F9
:1005900091C01092DC018091DC01CC0FC82BC0937C
:1005A000DC018091DB01813009F088C01092DB0111
:1005B0000E94D0006B017C018091DC018093BB0024
:1005C0008091030290910402A0910502B09106026D
:1005D000892B8A2B8B2BA1F00E94D0000091030263
:1005E0001091040220910502309106026C197D09D8
:1005F0008E099F09061717072807390708F442C014
:100600008091BC0083FDD8CF85EC8093BC000E9414
:10061000D0006B017C0180910102823009F450C04E
:100620008091FF018F3F09F46FC08091FF018032FC
:1006300009F46CC08091FF01803309F469C084E043
:1006400026C08091030290910402A0910502B0910E
:100650000602892B8A2B8B2B09F484CF0E94D000B1
:100660008090030290900402A0900502B0900602D0
:100670006C197D098E099F0986169706A806B9068A
:1006800008F070CF809102020E94790285E01092FA
:10069000080210922A0210920702DF91CF911F9157
:1006A0000F91FF90EF90DF90CF90BF90AF909F9011
:1006B0008F9008959D9191938F5F69CF85EEA5CF1F
:1006C0008091030290910402A0910502B09106026C
:1006D000892B8A2B8B2B09F49ECF0E94D00000918E
:1006E00003021091040220910502309106026C1958
:1006F0007D098E099F09061717072807390708F093
:100700008ACFC0CF81E0C3CF80E0C1CF82E0BFCF2E
:1007100083E0BDCF1F93CF93DF93EA01122FDC015B
:1007200011968D919C91DC01ED91FC910280F381F9
:10073000E02D0995C817D90729F4812F0E949A0244
:1007400091E0811190E0892FDF91CF911F91089561
:10075000CF93DF93EC018B818823A1F0888191E016
:1007600090930702809329021092080210922A02A5
:1007700081E00E949A0291E0811190E0892FDF913F
:10078000CF9108951092BA011092B9011092080207
:1007900010922A020E945B0282E890E09093B801D6
:1007A0008093B70183E890E09093B6018093B50100
:1007B00081E08B83CE010E94A803982F8111CECFB8
:1007C000DDCF0895E091BA018091B901E81730F4C6
:1007D000F0E0E554FE4F808190E008958FEF9FEFA9
:1007E00008959091BA018091B9012FEF3FEF9817CA
:1007F00048F4E92FF0E0E554FE4F208130E09F5FA0
:100800009093BA01C90108958091B9019091BA01FC
:10081000891B990B0895CF92DF92EF92FF920F936D
:100820001F93CF93DF937C01CB018A0120910702B4
:10083000222389F0EB016B01C40ED51ECC15DD051A
:1008400069F06991D701ED91FC910190F081E02D63
:10085000C7010995F3CF642F0E943402C801DF91CC
:10086000CF911F910F91FF90EF90DF90CF9008955F
:10087000CF93DF931F92CDB7DEB769832091070234
:100880002223F9F020912A02203258F021E030E0B2
:10089000FC013383228390E080E00F90DF91CF91C1
:1008A000089580910802E82FF0E0E75FFD4F9981FD
:1008B00090838F5F8093080280932A0281E090E00A
:1008C000ECCF61E0CE0101960E943402F7CF90E0B8
:1008D00080E00895CF93DF9300D0CDB7DEB7606896
:1008E00069834A83FC0180819181FC0124813581E7
:1008F0002230310590F0208131E0309307022093BF
:1009000029021092080210922A0221E042E050E0EF
:10091000BE016F5F7F4F0E948A030F900F90DF919F
:10092000CF9108952F923F924F925F926F927F9254
:100930008F929F92AF92BF92CF92DF92EF92FF92EF
:100940000F931F93CF93DF93DC011496ED91FC91ED
:100950001597EF2B09F425C169012A01EC01888163
:1009600091E090930702809329021092080210925E
:100970002A0220E041E050E0CD010E948A03782E57
:10098000882309F40EC1F12CE12C332433948C819B
:100990009D8186010E191F098017910708F48C01AB
:1009A00028800E94D0004B015C01809101028111DE
:1009B00073C0602EB0E2B01710F480E2682E30925F
:1009C000010221E0C601801B910BE816F90608F42C
:1009D00020E020930002EFEFE093FF011092FE0170
:1009E0008FEF860D8093FD013092DC018091DC0158
:1009F000220C282A2092DC018091DB01813009F051
:100A000090C01092DB010E94D0004B015C018091EC
:100A1000DC018093BB008091030290910402A091BD
:100A20000502B0910602892B8A2B8B2BA1F00E9424
:100A3000D0002091030230910402409105025091B0
:100A40000602681979098A099B092617370748079A
:100A5000590708F442C08091BC0083FDD8CFF5EC63
:100A6000F093BC000E94D0004B015C018091010218
:100A7000813009F45AC08091FE01861510F460900F
:100A8000FE01ADEDB1E0EBEBF1E080E0861551F158
:100A90009D9191938F5FFACF809103029091040210
:100AA000A0910502B0910602892B8A2B8B2B09F4A9
:100AB0007CCF0E94D000209103023091040240912B
:100AC000050250910602681979098A099B092617BF
:100AD00037074807590708F068CF809102020E9443
:100AE0007902612C1092BA016092B9016016110668
:100AF00009F057C042018E0C9F1C5401C501881992
:100B000099098017910798F589819A81DC01ED9107
:100B1000FC910284F385E02D0995F50181935F0135
:100B2000EDCF85EE8093BC009DCF80910302909124
:100B30000402A0910502B0910602892B8A2B8B2B0F
:100B400009F494CF0E94D000209103023091040256
:100B50004091050250910602681979098A099B099A
:100B6000261737074807590708F080CFB6CFE00EA1
:100B7000F11EEC14FD0408F40ACF872DDF91CF910C
:100B80001F910F91FF90EF90DF90CF90BF90AF90AB
:100B90009F908F907F906F905F904F903F902F909D
:100BA0000895712CEACFCF93DF9300D0CDB7DEB795
:100BB0001A8219826068698322E030E0AE014F5FDB
:100BC0005F4FBA01FC01808191810E94920489816A
:100BD0009A810F900F90DF91CF910895DF92EF925D
:100BE000FF920F931F93CF93DF931F92CDB7DEB782
:100BF0008C01FC0180819181009711F00E94CF0C43
:100C000086E090E00E94330C7C0189E2F70180834A
:100C100088EC92E092838183138280E290E0958356
:100C20008483F801F182E0821092BA011092B90136
:100C30001092080210922A020E945B0282E890E061
:100C40009093B8018093B70183E890E09093B60148
:100C50008093B50181E0F7018383C7010E94A80357
:100C6000F82E81110BC0F12C8F2D0F90DF91CF91B9
:100C70001F910F91FF90EF90DF90089582E9898393
:100C800021E030E0AE014F5F5F4FBA01F801808193
:100C900091810E94920489818D3421F0843411F075
:100CA000803109F781E0F8018283E5804E2D61E013
:100CB000C8010E946A04F801E582E380D480828141
:100CC000811103C0C8010E94EE054E2D6FE0C801DE
:100CD0000E946A04F801E382D48241E060E0C80126
:100CE0000E946A0463E070E080E090E00E94F500FA
:100CF00043E060E0C8010E946A04F801858120E0B9
:100D000031E0281B31094CE0429FC001439F900D08
:100D1000112465E070E00E94050C6F5F7F4F072E85
:100D2000000C880B990B0E94F5009ECFFC010190EE
:100D30000020E9F73197AF01481B590BBC018BE24A
:100D400092E00C94270185ED8093BC008091030212
:100D500090910402A0910502B09106020796A11D90
:100D6000B11D23E0B695A795979587952A95D1F75C
:100D70002091BC0024FD03C010920102089540910F
:100D80000302509104026091050270910602452B06
:100D9000462B472B69F30097A105B10541F02AE2E4
:100DA0002A95F1F700C00197A109B109E1CF80911F
:100DB00002020C9479021F920F920FB60F92112427
:100DC0002F933F938F939F93AF93BF938091AD01E8
:100DD0009091AE01A091AF01B091B0013091AC0102
:100DE00023E0230F2D3758F50196A11DB11D209347
:100DF000AC018093AD019093AE01A093AF01B0938D
:100E0000B0018091B1019091B201A091B301B09174
:100E1000B4010196A11DB11D8093B1019093B2015F
:100E2000A093B301B093B401BF91AF919F918F9103
:100E30003F912F910F900FBE0F901F90189526E8AD
:100E4000230F0296A11DB11DD2CF1F920F920FB694
:100E50000F9211242F933F934F935F936F937F9340
:100E60008F939F93AF93BF93EF93FF938BE292E0A7
:100E70000E94A501FF91EF91BF91AF919F918F913A
:100E80007F916F915F914F913F912F910F900FBE86
:100E90000F901F9018951F920F920FB60F9211246A
:100EA0002F938F939F93EF93FF93E0913B02F091E9
:100EB0003C028081E0914102F091420282FD1BC020
:100EC0009081809144028F5F8F7320914502821739
:100ED00041F0E0914402F0E0E55DFD4F958F809395
:100EE0004402FF91EF919F918F912F910F900FBE30
:100EF0000F901F9018958081F4CF1F920F920FB61C
:100F00000F9211242F933F934F935F936F937F938F
:100F10008F939F93AF93BF93EF93FF938091B9000B
:100F2000887F803609F44AC0F0F5883209F4A7C0FA
:100F300018F5803109F49BC0B8F4882309F4F9C08E
:100F4000883009F494C0FF91EF91BF91AF919F91C8
:100F50008F917F916F915F914F913F912F910F9062
:100F60000FBE0F901F901895883109F488C0803209
:100F700051F78093FF0114C0803409F49DC040F400
:100F80008033B9F38833F9F68093FF0185ECB0C064
:100F9000803509F485C0883509F496C0883499F6FF
:100FA0000E94A306D0CF883909F48CC038F5883761
:100FB00029F050F4883611F0803729F683E08093C9
:100FC00001021092AB0157C0883809F47BC0803908
:100FD00019F0803809F0B7CF8091AB01803208F06A
:100FE00071C0E091AB0181E08E0F8093AB018091E5
:100FF000BB00F0E0E557FE4F80833DC0803B39F0F9
:10100000E0F4803A09F479C0883A09F09CCF84E092
:101010008093010210928A0110928901E091B70138
:10102000F091B80109958091890181110FC081E08B
:10103000809389011092690109C0803C09F4A6CF10
:10104000883C09F4A3CF883B09F07DCFE0918A0169
:1010500081E08E0F80938A01F0E0E759FE4F808196
:101060008093BB0090918A018091890129C0809171
:10107000DC018093BB0085EC8093BC0064CF909131
:10108000FE018091FD01981758F5E091FE0181E085
:101090008E0F8093FE01F0E0E352FE4F8081E9CF96
:1010A000E091FE0181E08E0F8093FE018091BB00F4
:1010B000F0E0E352FE4F80839091FE018091FD01AC
:1010C0009817C8F285E8D8CFE091FE0181E08E0F35
:1010D0008093FE018091BB00F0E0E352FE4F8083DD
:1010E0008091000281115CCF81E08093DB0184EA72
:1010F0008093BC001092010226CF85EC8093BC0047
:10110000109201028091AB01803230F4E091AB018A
:10111000F0E0E557FE4F10826091AB0170E0E09186
:10112000B501F091B6018BE891E009951092AB0101
:101130000ACF1092FF0134CFEBE2F2E01382128269
:1011400088EE93E0A0E0B0E084839583A683B78324
:101150002AE031E03183208325EC30E03587248795
:1011600024EC30E03787268720EC30E0318B208B71
:1011700021EC30E0338B228B22EC30E0358B248B5A
:1011800026EC30E0378B268B118E128E138E148E48
:10119000E8ECF2E01382128284839583A683B783FE
:1011A0008CE191E091838083E2EEF2E01182108283
:1011B00012828FEF858314821382F093E102E09311
:1011C000E0020895CF93DF93CDB7DEB7A1970FB6B6
:1011D000F894DEBF0FBECDBF789484B5826084BD25
:1011E00084B5816084BD85B5826085BD85B581602B
:1011F00085BD80916E00816080936E0010928100A9
:101200008091810082608093810080918100816063
:101210008093810080918000816080938000809124
:10122000B10084608093B1008091B00081608093B0
:10123000B00080917A00846080937A0080917A0077
:10124000826080937A0080917A00816080937A0036
:1012500080917A00806880937A001092C100E091BA
:101260003B02F0913C0282E08083E0913702F091F2
:1012700038021082E0913902F0913A028FEC8083BB
:1012800010924302E0913F02F091400286E0808399
:10129000E0913D02F0913E02808180618083E09187
:1012A0003D02F0913E02808188608083E0913D02A2
:1012B000F0913E02808180688083E0913D02F09150
:1012C0003E0280818F7D808382EE92E00E94EE0557
:1012D000882309F4E4C08AE291E00E94960687E33D
:1012E00091E00E9496060091E0021091E102F8015F
:1012F0008281811103C0C8010E94EE0564E1C8012A
:101300000E94D3056C0166E1C8010E94D3057C01EF
:1013100068E1C8010E94D3055C016AE1C8010E942E
:10132000D3054C01F801858120E031E0281B31090B
:10133000FCE0F29FC001F39F900D112465E070E086
:101340000E94050C6F5F7F4F072E000C880B990BD6
:101350000E94F500C114D10409F4AAC0B60190E0BE
:1013600080E00E94E10A2B013C01B70190E080E09F
:101370000E94E10AA30192010E946F0A20E030E07E
:101380004FE753E40E94980B6B017C01B50190E09C
:1013900080E00E94E10AA30192010E946F0A20E00E
:1013A00030E04FE753E40E94980B1B015C01B4014D
:1013B00090E080E00E94E10AA30192010E946F0A7E
:1013C00020E030E04FE753E40E94980B2B013C01F2
:1013D000C601D7018093D4029093D502A093D60280
:1013E000B093D702C101D5018093D8029093D9025E
:1013F000A093DA02B093DB024092DC025092DD024D
:101400006092DE027092DF0220E030E0A901B601B6
:10141000C7010E94930B10E000E087FF06C0C12CBB
:10142000D12CE12CF12C0FEF1FEF9101A501B6019A
:10143000C7010E946A0A181624F06101750101E0D3
:1014400010E0A3019201B601C7010E946A0A1816B2
:10145000DCF50F3F1007D1F56DE28BE292E00E94C0
:10146000C70119A281E388A3CE0180960E94960647
:1014700087E391E00E94960664E670E080E090E0E9
:101480000E94F500E0E0F0E0EF2B09F42CCF0E9481
:101490009101882309F427CF0E94000024CF8AE31A
:1014A00091E00E94960687E391E00E949606FFCFA6
:1014B000412C512C3201212C312CA12CB12CC12CCE
:1014C000D12CE12CF12C84CF02E010E019A2005DB8
:1014D00008A3CACF0E941E0B08F481E008950E9461
:1014E000830A0C94590B0E94520B58F00E944B0B2C
:1014F00040F029F45F3F29F00C94420B51110C94F9
:101500008D0B0C94480B0E946A0B68F39923B1F37E
:10151000552391F3951B550BBB27AA276217730719
:10152000840738F09F5F5F4F220F331F441FAA1FAD
:10153000A9F335D00E2E3AF0E0E832D09150504069
:10154000E695001CCAF72BD0FE2F29D0660F771F17
:10155000881FBB1F261737074807AB07B0E809F0FD
:10156000BB0B802DBF01FF2793585F4F3AF09E3F82
:10157000510578F00C94420B0C948D0B5F3FE4F313
:10158000983ED4F3869577956795B795F7959F5FC5
:10159000C9F7880F911D9695879597F90895E1E011
:1015A000660F771F881FBB1F621773078407BA0770
:1015B00020F0621B730B840BBA0BEE1F88F7E095CB
:1015C0000895E89409C097FB3EF490958095709536
:1015D00061957F4F8F4F9F4F9923A9F0F92F96E97F
:1015E000BB279395F695879577956795B795F111F4
:1015F000F8CFFAF4BB0F11F460FF1BC06F5F7F4F91
:101600008F4F9F4F16C0882311F096E911C07723A2
:1016100021F09EE8872F762F05C0662371F096E8AB
:10162000862F70E060E02AF09A95660F771F881F7A
:10163000DAF7880F9695879597F90895990F00081E
:10164000550FAA0BE0E8FEEF16161706E807F90794
:10165000C0F012161306E407F50798F0621B730B2F
:10166000840B950B39F40A2661F0232B242B252BB0
:1016700021F408950A2609F4A140A6958FEF811D53
:10168000811D089597F99F6780E870E060E00895F4
:101690009FEF80EC089500240A941616170618068A
:1016A0000906089500240A94121613061406050666
:1016B0000895092E0394000C11F4882352F0BB0FF7
:1016C00040F4BF2B11F460FF04C06F5F7F4F8F4F5A
:1016D0009F4F089557FD9058440F551F59F05F3F95
:1016E00071F04795880F97FB991F61F09F3F79F044
:1016F00087950895121613061406551FF2CF4695C6
:10170000F1DF08C0161617061806991FF1CF869547
:101710007105610508940895E894BB27662777272B
:10172000CB0197F908950E941E0B08F48FEF0895DE
:101730000E94AB0B0C94590B0E944B0B38F00E948B
:10174000520B20F0952311F00C94420B0C94480B93
:1017500011240C948D0B0E946A0B70F3959FC1F3BA
:10176000950F50E0551F629FF001729FBB27F00D4F
:10177000B11D639FAA27F00DB11DAA1F649F6627A4
:10178000B00DA11D661F829F2227B00DA11D621FF3
:10179000739FB00DA11D621F839FA00D611D221FAD
:1017A000749F3327A00D611D231F849F600D211D91
:1017B000822F762F6A2F11249F5750409AF0F1F014
:1017C00088234AF0EE0FFF1FBB1F661F771F881F7D
:1017D00091505040A9F79E3F510580F00C94420B68
:1017E0000C948D0B5F3FE4F3983ED4F38695779588
:1017F0006795B795F795E7959F5FC1F7FE2B880F23
:10180000911D9695879597F9089597FB072E16F4E5
:10181000009407D077FD09D00E94190C07FC05D071
:101820003EF4909581959F4F0895709561957F4FF7
:101830000895AA1BBB1B51E107C0AA1FBB1FA61717
:10184000B70710F0A61BB70B881F991F5A95A9F769
:1018500080959095BC01CD010895EE0FFF1F059076
:10186000F491E02D09940F931F93CF93DF9382306F
:10187000910510F482E090E0E091EA02F091EB0231
:1018800030E020E0B0E0A0E0309799F42115310578
:1018900009F44AC0281B390B24303105D8F58A8158
:1018A0009B816115710589F1FB0193838283FE01A0
:1018B00011C0408151810281138148175907E0F01E
:1018C0004817590799F4109761F012960C931297E4
:1018D00013961C933296CF01DF91CF911F910F91F8
:1018E00008950093EA021093EB02F4CF211531051D
:1018F00051F04217530738F0A901DB019A01BD01ED
:10190000DF01F801C1CFEF01F9CF9093EB02809393
:10191000EA02CDCFFE01E20FF31F81939193225093
:10192000310939832883D7CF2091E8023091E90229
:10193000232B41F420910201309103013093E902FD
:101940002093E80220910001309101012115310519
:1019500041F42DB73EB74091040150910501241B7D
:10196000350BE091E802F091E902E217F307A0F4E9
:101970002E1B3F0B2817390778F0AC014E5F5F4FE5
:101980002417350748F04E0F5F1F5093E90240932C
:10199000E802819391939FCFF0E0E0E09CCFCF935A
:1019A000DF930097E9F0FC01329713821282A09135
:1019B000EA02B091EB02ED0130E020E01097A1F4D3
:1019C00020813181820F931F2091E8023091E9023A
:1019D0002817390709F061C0F093E902E093E802A3
:1019E000DF91CF910895EA01CE17DF07E8F54A812C
:1019F0005B819E0141155105B1F7E901FB83EA8343
:101A000049915991C40FD51FEC17FD0761F48081EE
:101A100091810296840F951FE901998388838281C1
:101A200093819B838A83F0E0E0E012968D919C91F4
:101A300013970097B9F52D913C911197CD0102961E
:101A4000820F931F2091E8023091E902281739078D
:101A500039F6309751F51092EB021092EA02B093EA
:101A6000E902A093E802BCCFD383C28340815181B5
:101A7000840F951FC817D90761F44E5F5F4F8881A7
:101A80009981480F591F518340838A819B81938399
:101A900082832115310509F0B0CFF093EB02E0937A
:101AA000EA029ECFFD01DC01C0CF13821282D7CFA4
:041AB000F894FFCFD8
:101AB4000000EC02800000000000C701270154016F
:101AC40014028501630177010000000038040B044F
:101AD4006704E1030404F103E203466F756E6420B6
:101AE40073656E736F72000D0A004E6F205443537A
:101AF400333437323520666F756E64202E2E2E20D7
:101B0400636865636B20796F757220636F6E6E65B1
:081B14006374696F6E73000039
:00000001FF
